:020000020000FC
:101E0000F89434B733FD17C00FEF0DBF04E00EBFD9
:101E1000529A52985A9A5A9A4A9903C01197E0F7DF
:101E20000AC0BDD03296B591A0E80A95F1F74A9B59
:101E300004C01197D0F7A8D0E3C0AA27BB2706E0BB
:101E40004A99FECF11964A9BFDCF0A95C9F73D01ED
:101E50003FEF259123232F3F81F0A4D0003021F0C4
:101E60000217B1F33327F5CF303099F376D026F04F
:101E700074D016F080D005C0DECFE0EFFFE140E186
:101E80000ED0EE27FF279AD08DD034D0FACF5DD078
:101E90000EF4089584D075D019D081D040E474D068
:101EA00005918DD04A95D9F7089559D02EF0F6DFD7
:101EB000E03CD9F7FD31C9F7089557D046D02EF050
:101EC00005D0FD31D9F7EF3BC9F7089564D00990EB
:101ED000199001E007BFE89532964250C1F7E054EF
:101EE000F04005E007BFE89507B700FDFDCFE05CD7
:101EF000FF4F0895033689F2033449F20636A9F2FA
:101F00000634D9F2053659F0053409F094CF1DD0C6
:101F100096F041D0099110D04A95E1F7F8CF1FD043
:101F200056F040E4E1BDF2BDF89A00B548D03196D4
:101F30004A95C1F7F4CF089500BDE1BDF2BDFA9A0C
:101F4000F99AF999FECF3196089507D02EF023D053
:101F500029D009934A95E1F708950FE330D022D0B4
:101F6000E894013209F06894089519D0E054F040E3
:101F700008D0E1F70895F9DF0FEFDEDFF430E9F77D
:101F80000ED003E007BFE89507B700FDFDCF01E1E4
:101F900007BFE8950895C0E0D1E040E40895E0EC83
:101FA000FDE108955A9A4A99FECF18E01DD017D046
:101FB00006954A9900681A95D1F711C001E20FD031
:101FC0000CD018E000FD05D000FF07D006951A954B
:101FD000C9F7529A52985A9A02C0529A5A98D30103
:101FE00058970000E8F70895D301B695A795F8CF64
:101FF000545342DA22F11E930F20E00EFF01AAAAE9
:00000001FF
