:020000020000FC
:101E0000F89434B733FD19C00FEF0DBF04E00EBFD7
:101E100000E00093C50003E30093C40006E00093D4
:101E2000C20000E10093C100BBD03296B591A0E89A
:101E3000BAD0003039F41197D8F7A7D00027009313
:101E4000C000DEC0003409F0F8CF1395133009F05C
:101E5000EFCF3FEF259123232F3F81F0A4D0003017
:101E600021F00217B1F33327F5CF303099F376D054
:101E700026F074D016F080D005C0DFCFE8EDFFE18A
:101E800040E10ED0EE27FF2799D08DD034D0FACF85
:101E90005DD00EF4089584D075D019D081D040E47F
:101EA00074D005918CD04A95D9F7089559D02EF069
:101EB000F6DFE03CD9F7FD31C9F7089557D046D099
:101EC0002EF005D0FD31D9F7EF3BC9F7089564D066
:101ED0000990199001E007BFE89532964250C1F78A
:101EE000E054F04005E007BFE89507B700FDFDCFDF
:101EF000E05CFF4F0895033689F2033449F2063659
:101F0000A9F20634D9F2053659F0053409F095CF17
:101F10001DD096F041D0099110D04A95E1F7F8CF45
:101F20001FD056F040E4E1BDF2BDF89A00B547D0AD
:101F300031964A95C1F7F4CF089500BDE1BDF2BDD9
:101F4000FA9AF99AF999FECF3196089507D02EF0B2
:101F500023D029D009934A95E1F708950FE32FD0B4
:101F600022D0E894013209F06894089519D0E05421
:101F7000F04008D0E1F70895F9DF0FEFDEDFF4302D
:101F8000E9F70ED003E007BFE89507B700FDFDCFE6
:101F900001E107BFE8950895C0E0D1E040E408956D
:101FA000E0ECFDE1089500272227A091C000A7FDE5
:101FB00003C02A95D1F7089506EC089501E2A8E040
:101FC000A093C1000093C600A091C00026FFFCCFE3
:101FD000A0E12093C1000895545342DA22701E9369
:081FE0000F20E00EFF01AAAA88
:00000001FF
